{
  "abi": [
    {
      "type": "constructor",
      "inputs": [],
      "stateMutability": "nonpayable"
    },
    {
      "type": "fallback",
      "stateMutability": "payable"
    },
    {
      "type": "receive",
      "stateMutability": "payable"
    },
    {
      "type": "function",
      "name": "MINIMUM_AMOUNT",
      "inputs": [],
      "outputs": [
        {
          "name": "",
          "type": "uint256",
          "internalType": "uint256"
        }
      ],
      "stateMutability": "view"
    },
    {
      "type": "function",
      "name": "getUrlAmount",
      "inputs": [
        {
          "name": "pageUrl",
          "type": "string",
          "internalType": "string"
        }
      ],
      "outputs": [
        {
          "name": "",
          "type": "uint256",
          "internalType": "uint256"
        }
      ],
      "stateMutability": "view"
    },
    {
      "type": "function",
      "name": "owner",
      "inputs": [],
      "outputs": [
        {
          "name": "",
          "type": "address",
          "internalType": "address"
        }
      ],
      "stateMutability": "view"
    },
    {
      "type": "function",
      "name": "pay",
      "inputs": [
        {
          "name": "pageUrl",
          "type": "string",
          "internalType": "string"
        }
      ],
      "outputs": [],
      "stateMutability": "payable"
    },
    {
      "type": "function",
      "name": "withdraw",
      "inputs": [],
      "outputs": [],
      "stateMutability": "nonpayable"
    },
    {
      "type": "event",
      "name": "PaymentReceived",
      "inputs": [
        {
          "name": "payer",
          "type": "address",
          "indexed": true,
          "internalType": "address"
        },
        {
          "name": "amount",
          "type": "uint256",
          "indexed": false,
          "internalType": "uint256"
        },
        {
          "name": "pageUrl",
          "type": "string",
          "indexed": false,
          "internalType": "string"
        }
      ],
      "anonymous": false
    },
    {
      "type": "event",
      "name": "Withdrawal",
      "inputs": [
        {
          "name": "owner",
          "type": "address",
          "indexed": true,
          "internalType": "address"
        },
        {
          "name": "amount",
          "type": "uint256",
          "indexed": false,
          "internalType": "uint256"
        }
      ],
      "anonymous": false
    }
  ],
  "bytecode": {
    "object": "0x608060405234801561001057600080fd5b50600080546001600160a01b031916331790556104de806100326000396000f3fe60806040526004361061004e5760003560e01c8063257d9bb81461008c5780632b66d72e146100ba5780633ccfd60b146100cf5780638c390f6f146100e45780638da5cb5b1461010457610074565b366100745760405162461bcd60e51b815260040161006b906102fb565b60405180910390fd5b60405162461bcd60e51b815260040161006b906102fb565b34801561009857600080fd5b506100a766038d7ea4c6800081565b6040519081526020015b60405180910390f35b6100cd6100c8366004610356565b61013c565b005b3480156100db57600080fd5b506100cd6101fe565b3480156100f057600080fd5b506100a76100ff366004610356565b6102d3565b34801561011057600080fd5b50600054610124906001600160a01b031681565b6040516001600160a01b0390911681526020016100b1565b66038d7ea4c6800034101561018c5760405162461bcd60e51b81526020600482015260166024820152755061796d656e7420616d6f756e7420746f6f206c6f7760501b604482015260640161006b565b3460018260405161019d919061042b565b908152602001604051809103902060008282546101ba9190610447565b909155505060405133907f8dfc1109af223bb7f4e48f38a8a7631f492f0106b90747a651bf181b0fc4e402906101f3903490859061046e565b60405180910390a250565b6000546001600160a01b031633146102585760405162461bcd60e51b815260206004820152601760248201527f4f6e6c79206f776e65722063616e207769746864726177000000000000000000604482015260640161006b565b6000805460405147926001600160a01b039092169183156108fc02918491818181858888f19350505050158015610293573d6000803e3d6000fd5b506000546040518281526001600160a01b03909116907f7fcf532c15f0a6db0bd6d0e038bea71d30d808c7d98cb3bf7268a95bf5081b65906020016101f3565b60006001826040516102e5919061042b565b9081526020016040518091039020549050919050565b60208082526025908201527f55736520746865207061792066756e6374696f6e20746f206d616b65207061796040820152646d656e747360d81b606082015260800190565b634e487b7160e01b600052604160045260246000fd5b60006020828403121561036857600080fd5b813567ffffffffffffffff8082111561038057600080fd5b818401915084601f83011261039457600080fd5b8135818111156103a6576103a6610340565b604051601f8201601f19908116603f011681019083821181831017156103ce576103ce610340565b816040528281528760208487010111156103e757600080fd5b826020860160208301376000928101602001929092525095945050505050565b60005b8381101561042257818101518382015260200161040a565b50506000910152565b6000825161043d818460208701610407565b9190910192915050565b8082018082111561046857634e487b7160e01b600052601160045260246000fd5b92915050565b8281526040602082015260008251806040840152610493816060850160208701610407565b601f01601f191691909101606001939250505056fea2646970667358221220bb48b923a6b7d4d8f347543788f9508e3215c1658d1aa4ecd968e3eea87c832464736f6c63430008160033",
    "linkReferences": {}
  },
  "methodIdentifiers": {
    "MINIMUM_AMOUNT()": "257d9bb8",
    "getUrlAmount(string)": "8c390f6f",
    "owner()": "8da5cb5b",
    "pay(string)": "2b66d72e",
    "withdraw()": "3ccfd60b"
  },
  "id": 20
}